{
  "transactions": [
    {
      "hash": "0x895fe1138b5af15edda4daa0110548d42419499cb1f12d3629ee808f109f686a",
      "transactionType": "CREATE2",
      "contractName": "GasOracle",
      "contractAddress": "0xb5551d46d873459a79b0da224727f7d00c7a3ba9",
      "function": null,
      "arguments": [
        "0x873099Be83E77C750659D683d2Adf1A905c921Fe"
      ],
      "transaction": {
        "from": "0x873099be83e77c750659d683d2adf1a905c921fe",
        "to": "0x4e59b44847b379578588920ca78fbf26c0b4956c",
        "gas": "0x58feff",
        "value": "0x0",
        "input": "0x0000000000000000000000000000000000000000bb3ab048b3f4ef2620ea0000608060405234801561001057600080fd5b506040516105a83803806105a883398101604081905261002f916100be565b806001600160a01b03811661005e57604051631e4fbdf760e01b81526000600482015260240160405180910390fd5b6100678161006e565b50506100ee565b600080546001600160a01b038381166001600160a01b0319831681178455604051919092169283917f8be0079c531659141344cd1fd0a4f28419497f9722a3daafe3b4186f6b6457e09190a35050565b6000602082840312156100d057600080fd5b81516001600160a01b03811681146100e757600080fd5b9392505050565b6104ab806100fd6000396000f3fe608060405234801561001057600080fd5b506004361061009e5760003560e01c8063c91d59fe11610066578063c91d59fe1461011e578063e1d8153c14610131578063f2fde38b14610150578063f60fdcb314610163578063fc0c546a1461016b57600080fd5b80633ba9290f146100a3578063715018a6146100c95780637ad3def2146100d35780638d6cc56d146100e65780638da5cb5b146100f9575b600080fd5b6100b66100b136600461040a565b610173565b6040519081526020015b60405180910390f35b6100d16101c7565b005b6100d16100e1366004610433565b6101db565b6100d16100f436600461045c565b610238565b6000546001600160a01b03165b6040516001600160a01b0390911681526020016100c0565b600154610106906001600160a01b031681565b6101396102a0565b60405165ffffffffffff90911681526020016100c0565b6100d161015e366004610433565b6102db565b6100b661031e565b610106610351565b6001546000906001600160a01b031661019f57604051630105a9d760e51b815260040160405180910390fd5b81156101bf576003805465ffffffffffff19164265ffffffffffff161790555b505060025490565b6101cf61038d565b6101d960006103ba565b565b6101e361038d565b600180546001600160a01b0319166001600160a01b0383169081179091556040519081527f0a3fca41554923982b4d08bcebcd5ab28cbf98fd7b0d777903aa84b969427972906020015b60405180910390a150565b61024061038d565b60028190556003805465ffffffffffff19164265ffffffffffff169081179091556040805183815260208101849052908101919091527f488c2c951efd0b4149f0fc21cd366f1035e51c1c0615978e323d2edee5fff46a9060600161022d565b6001546000906001600160a01b03166102cc57604051630105a9d760e51b815260040160405180910390fd5b5060035465ffffffffffff1690565b6102e361038d565b6001600160a01b03811661031257604051631e4fbdf760e01b8152600060048201526024015b60405180910390fd5b61031b816103ba565b50565b6001546000906001600160a01b031661034a57604051630105a9d760e51b815260040160405180910390fd5b5060025490565b6001546000906001600160a01b031661037d57604051630105a9d760e51b815260040160405180910390fd5b506001546001600160a01b031690565b6000546001600160a01b031633146101d95760405163118cdaa760e01b8152336004820152602401610309565b600080546001600160a01b038381166001600160a01b0319831681178455604051919092169283917f8be0079c531659141344cd1fd0a4f28419497f9722a3daafe3b4186f6b6457e09190a35050565b60006020828403121561041c57600080fd5b8135801515811461042c57600080fd5b9392505050565b60006020828403121561044557600080fd5b81356001600160a01b038116811461042c57600080fd5b60006020828403121561046e57600080fd5b503591905056fea2646970667358221220e0e8e54a6fdbeea6bb0f2047b2c0063b0022dd20634d970e32d049aa04adde2764736f6c63430008180033000000000000000000000000873099be83e77c750659d683d2adf1a905c921fe",
        "nonce": "0x2f",
        "chainId": "0x66eee"
      },
      "additionalContracts": [],
      "isFixedGasLimit": false
    },
    {
      "hash": "0xd493ea4dfd0aabdb5c7ff974c1acd7db60480f78aa34fd9a2bce7cc31ffc401c",
      "transactionType": "CALL",
      "contractName": "GasOracle",
      "contractAddress": "0xb5551d46d873459a79b0da224727f7d00c7a3ba9",
      "function": "updateToken(address)",
      "arguments": [
        "0x1fcfcF8e3C2fcfBF1bD9F2D8E7F7F3F6f7f3f6f7"
      ],
      "transaction": {
        "from": "0x873099be83e77c750659d683d2adf1a905c921fe",
        "to": "0xb5551d46d873459a79b0da224727f7d00c7a3ba9",
        "gas": "0xd5375",
        "value": "0x0",
        "input": "0x7ad3def20000000000000000000000001fcfcf8e3c2fcfbf1bd9f2d8e7f7f3f6f7f3f6f7",
        "nonce": "0x30",
        "chainId": "0x66eee"
      },
      "additionalContracts": [],
      "isFixedGasLimit": false
    },
    {
      "hash": "0x8ad7d67b96b5e92d172b4e079fdf99c642efdfcd3f6a22e1493cb087198e7961",
      "transactionType": "CALL",
      "contractName": "GasOracle",
      "contractAddress": "0xb5551d46d873459a79b0da224727f7d00c7a3ba9",
      "function": "updatePrice(uint256)",
      "arguments": [
        "5000000000000000000"
      ],
      "transaction": {
        "from": "0x873099be83e77c750659d683d2adf1a905c921fe",
        "to": "0xb5551d46d873459a79b0da224727f7d00c7a3ba9",
        "gas": "0xd5298",
        "value": "0x0",
        "input": "0x8d6cc56d0000000000000000000000000000000000000000000000004563918244f40000",
        "nonce": "0x31",
        "chainId": "0x66eee"
      },
      "additionalContracts": [],
      "isFixedGasLimit": false
    }
  ],
  "receipts": [
    {
      "status": "0x1",
      "cumulativeGasUsed": "0x1930357",
      "logs": [
        {
          "address": "0xb5551d46d873459a79b0da224727f7d00c7a3ba9",
          "topics": [
            "0x8be0079c531659141344cd1fd0a4f28419497f9722a3daafe3b4186f6b6457e0",
            "0x0000000000000000000000000000000000000000000000000000000000000000",
            "0x000000000000000000000000873099be83e77c750659d683d2adf1a905c921fe"
          ],
          "data": "0x",
          "blockHash": "0x907b4cf5cebb8f7441786ba3e9f50ba8b323d9c84f347c96674faaf29d7854bc",
          "blockNumber": "0x48d204f",
          "transactionHash": "0x895fe1138b5af15edda4daa0110548d42419499cb1f12d3629ee808f109f686a",
          "transactionIndex": "0x2",
          "logIndex": "0x45",
          "removed": false
        }
      ],
      "logsBloom": "0x00000000000000000000000000000000000000000000000000800000000000000000000000000000000000000000000000000000000000400000000000000000000000000000000000000000000000000001000000000000000000000000000000000000020000000000000000000820000000000000000000000000000000400000000000000000000000000000000000800000000000000000000000000000000000000000000000000000000000000000000000000000000000000000000000000000000000000000000000000000000000000000000000000000000020000000000000000000000010000000040000000000000000000000000004000000",
      "type": "0x2",
      "transactionHash": "0x895fe1138b5af15edda4daa0110548d42419499cb1f12d3629ee808f109f686a",
      "transactionIndex": "0x2",
      "blockHash": "0x907b4cf5cebb8f7441786ba3e9f50ba8b323d9c84f347c96674faaf29d7854bc",
      "blockNumber": "0x48d204f",
      "gasUsed": "0x3c25ce",
      "effectiveGasPrice": "0x5f5e100",
      "from": "0x873099be83e77c750659d683d2adf1a905c921fe",
      "to": "0x4e59b44847b379578588920ca78fbf26c0b4956c",
      "contractAddress": null,
      "gasUsedForL1": "0x36f59e",
      "l1BlockNumber": "0x64f590"
    },
    {
      "status": "0x1",
      "cumulativeGasUsed": "0x13a0e7",
      "logs": [
        {
          "address": "0xb5551d46d873459a79b0da224727f7d00c7a3ba9",
          "topics": [
            "0x0a3fca41554923982b4d08bcebcd5ab28cbf98fd7b0d777903aa84b969427972"
          ],
          "data": "0x0000000000000000000000001fcfcf8e3c2fcfbf1bd9f2d8e7f7f3f6f7f3f6f7",
          "blockHash": "0x47036addf29574e66f4252968f43afe57c07e6a2628dd242237e2011af949756",
          "blockNumber": "0x48d2055",
          "transactionHash": "0xd493ea4dfd0aabdb5c7ff974c1acd7db60480f78aa34fd9a2bce7cc31ffc401c",
          "transactionIndex": "0x2",
          "logIndex": "0x2",
          "removed": false
        }
      ],
      "logsBloom": "0x00000000000000000000000000040000000000000000000000000000000000000010000000000000000000000000000000000000000000000000000000000000000000000000000000000000000000000000000000000000000000000000000000000000000000000000000000000000000000000000000000000000000000000000000000000000000000000000000000800000000000000000000000000000020000000000000000000000000000000000000000000000000000000000000000000000000000000000000000000000000000000000000000000000000000000000000000000000000010000000040000000000000000000000000000000000",
      "type": "0x2",
      "transactionHash": "0xd493ea4dfd0aabdb5c7ff974c1acd7db60480f78aa34fd9a2bce7cc31ffc401c",
      "transactionIndex": "0x2",
      "blockHash": "0x47036addf29574e66f4252968f43afe57c07e6a2628dd242237e2011af949756",
      "blockNumber": "0x48d2055",
      "gasUsed": "0x81f8f",
      "effectiveGasPrice": "0x5f5e100",
      "from": "0x873099be83e77c750659d683d2adf1a905c921fe",
      "to": "0xb5551d46d873459a79b0da224727f7d00c7a3ba9",
      "contractAddress": null,
      "gasUsedForL1": "0x76774",
      "l1BlockNumber": "0x64f590"
    },
    {
      "status": "0x1",
      "cumulativeGasUsed": "0x1558272",
      "logs": [
        {
          "address": "0xb5551d46d873459a79b0da224727f7d00c7a3ba9",
          "topics": [
            "0x488c2c951efd0b4149f0fc21cd366f1035e51c1c0615978e323d2edee5fff46a"
          ],
          "data": "0x0000000000000000000000000000000000000000000000004563918244f400000000000000000000000000000000000000000000000000004563918244f400000000000000000000000000000000000000000000000000000000000066d53153",
          "blockHash": "0xa1360eae9a00cc4249697979d2c4152226934ca6052365b092cd4dcaf699140f",
          "blockNumber": "0x48d205a",
          "transactionHash": "0x8ad7d67b96b5e92d172b4e079fdf99c642efdfcd3f6a22e1493cb087198e7961",
          "transactionIndex": "0x2",
          "logIndex": "0x51",
          "removed": false
        }
      ],
      "logsBloom": "0x00000000000000000000000000000000000000000000000000000000000000000000000000000000000000000000000000000000000000000000000000000000000000000000000000000000000000000000000000000000000000000000000000000000000000000000000000000000000000000000000000000000000000000000000000000000000000000000000000800000000000000000000000000008000000000000000000000000000000000000000000000000000000000000000000000000000000000000000000000000000000800000000000000000000000000000000000000000000010000000040000000000000000000001000000000000",
      "type": "0x2",
      "transactionHash": "0x8ad7d67b96b5e92d172b4e079fdf99c642efdfcd3f6a22e1493cb087198e7961",
      "transactionIndex": "0x2",
      "blockHash": "0xa1360eae9a00cc4249697979d2c4152226934ca6052365b092cd4dcaf699140f",
      "blockNumber": "0x48d205a",
      "gasUsed": "0x8774e",
      "effectiveGasPrice": "0x5f5e100",
      "from": "0x873099be83e77c750659d683d2adf1a905c921fe",
      "to": "0xb5551d46d873459a79b0da224727f7d00c7a3ba9",
      "contractAddress": null,
      "gasUsedForL1": "0x76774",
      "l1BlockNumber": "0x64f590"
    }
  ],
  "libraries": [],
  "pending": [],
  "returns": {},
  "timestamp": 1725247828,
  "chain": 421614,
  "commit": "6d76495"
}